:020000040800F2
:100000007806002091010008990100089B01000872
:100010009D0100089F010008A101000800000000E8
:10002000000000000000000000000000A301000824
:10003000A501000800000000A7010008A9010008B0
:10004000AB010008AB010008AB010008AB010008E0
:10005000AB010008AB010008AB010008AB010008D0
:10006000AB010008AB010008AB010008AB010008C0
:10007000AB010008AB010008AB010008AB010008B0
:10008000AB010008AB010008AB010008AB010008A0
:10009000AB010008AB010008AB010008AB01000890
:1000A000AB010008AB010008AB010008AB01000880
:1000B000AB010008AB010008AB010008AB01000870
:1000C000AB010008AB010008AB010008AB01000860
:1000D000AB010008AB010008AB010008AB01000850
:1000E000AB010008AB010008AB01000800F002F80A
:1000F00000F03FF80AA090E8000C82448344AAF183
:100100000107DA4501D100F034F8AFF2090EBAE880
:100110000F0013F0010F18BFFB1A43F0010318473B
:10012000E40E0000040F0000103A24BF78C878C124
:10013000FAD8520724BF30C830C144BF04680C60ED
:10014000704700000023002400250026103A28BF35
:1001500078C1FBD8520728BF30C148BF0B60704739
:10016000752900F07580002070471FB51FBD10B5C0
:1001700010BD00F033F91146FFF7F7FF00F0D2FD94
:1001800000F051F903B4FFF7F2FF03BC00F058F997
:100190000948804709480047FEE7FEE7FEE7FEE71B
:1001A000FEE7FEE7FEE7FEE7FEE7FEE70448054957
:1001B000054A064B70470000B50A0008ED0000082C
:1001C00078000020780600207802002078020020C5
:1001D0000FB4044910B503AA029800F0D1F810BC7E
:1001E0005DF814FB000000202DE9F0410E460446A6
:1001F000002020622046E168884730B3252805D0DA
:10020000D4E901219047206A401CF2E7E1682046CA
:1002100000278847050018D0A5F14100192802D809
:1002200020354FF400673246294620462760FFF705
:1002300097FF40B1012804D0F61D26F007060836C6
:10024000D8E7361DD6E72846DAE7206ABDE8F08110
:100250002DE9F0410646002410687529314616A59F
:1002600010D0AFF30080002802DA404213A507E067
:1002700031688A0701D512A502E0490704D511A506
:10028000012401E0AFF3008000210A2206F12407D7
:1002900009E0B0FBF2FCB0FBF2F302FB1C003030D3
:1002A00078541846491C0028F3D123462A46304684
:1002B000BDE8F04100F00BB8000000002D00000088
:1002C0002B000000200000007047704770472DE9A8
:1002D000F0470D4699469246044600F1240801680D
:1002E000880604D5E06921F01001216000E00120BA
:1002F000A84201DD471B00E00027A1697A1902EB43
:100300000900081AA0612078C00602D42046AFF385
:100310000080002608E0D4E901211AF80600904781
:10032000206A401C761C20624E45F4DB2078C00613
:100330000AD52046AFF3008006E0D4E90121302041
:100340009047206A401C2062381EA7F10107F4DCA8
:1003500007E0D4E9012118F805009047206A401C05
:100360002062281EA5F10105F3DC2046AFF30080D2
:100370002078000602D50220BDE8F0870120FBE7C7
:10038000074B70B50D467B4400F011F80446284633
:1003900000F020F810B14FF0FF3070BD204670BD66
:1003A0003909000001694A1C02610878704700B5EC
:1003B0008FB0CDE901310021059105497944CDE99E
:1003C000031011466846FFF70FFF0FB000BD000095
:1003D000E5FFFFFF007B00F080007047754600F0EE
:1003E0002BF8AE4605006946534620F007008546C7
:1003F00018B020B5FFF7DAFEBDE820404FF0000648
:100400004FF000074FF000084FF0000B21F00701FC
:10041000AC46ACE8C009ACE8C009ACE8C009ACE83F
:10042000C0098D46704710B50446AFF300802046E2
:10043000BDE81040FFF7A6BE004870471800002036
:1004400001491820ABBEFEE726000200704710B538
:100450000121B82000F0EEF90721B82000F0EAF9F8
:100460001021B82000F0E6F910BD0000F8B5022216
:100470006946B82000F08EF99DF801009DF8001043
:1004800040EA0124204600F05FFD0646034900F0E3
:1004900079FC054600F038FD80B2F8BD9A99993F85
:1004A0002DE9F0410246002500260020002300240B
:1004B000002791F803C00CF00F0591F803C00CF071
:1004C000100CBCF1000F03D091F802C04CEA0505F6
:1004D00091F800C0BCF1000F31D0146800202BE06F
:1004E0004FF0010C0CFA00F3B1F800C00CEA03065F
:1004F0009E4220D183004FF00F0C0CFA03F7BC434F
:1005000005FA03FC4CEA040491F803C0BCF1280F7F
:1005100006D14FF0010C0CFA00FCC2F814C00AE03E
:1005200091F803C0BCF1480F05D14FF0010C0CFA53
:1005300000FCC2F810C0401C0828D1D31460B1F8E8
:1005400000C0BCF1FF0F34DD546800202EE000F144
:10055000080C4FF0010808FA0CF3B1F800C00CEADF
:1005600003069E4221D183004FF00F0C0CFA03F7D3
:10057000BC4305FA03FC4CEA040491F803C0BCF147
:10058000280F05D100F1080C08FA0CF8C2F8148005
:1005900091F803C0BCF1480F07D100F1080C4FF0EF
:1005A000010808FA0CF8C2F81080401C0828CED3C5
:1005B0005460BDE8F081000008B50121082000F07A
:1005C0008BF9C020ADF8000003208DF802001C203C
:1005D0008DF8030069460248FFF762FF08BD00007E
:1005E000000C014021B1028842F48062028004E0E4
:1005F00002884FF6FF331A400280704770B50246FA
:100600000024002500230020958A138B1B0445EA53
:10061000030626F07F4404EA01068E4201D1012040
:1006200000E0002070BD21B1028842F0010202808A
:1006300004E002884FF6FE731A4002807047000003
:1006400010B504460B48844209D10121480500F049
:1006500033F900214FF4001000F02EF908E00121D9
:10066000880500F029F900214FF4800000F024F9FA
:1006700010BD00000054004021B1028842F4807295
:10068000028004E002884FF6FF631A400280704740
:1006900021B1028842F40072028004E002884FF621
:1006A000FF531A40028070472DE9F04385B004469D
:1006B0000D460026B1460427DFF8CC80A6884FF609
:1006C000C0700640684600F017F9DDF808802F4832
:1006D000B8FBF0F01FFA80F946EA0906A6802088E8
:1006E0004FF6FE710840208000262949286888427C
:1006F0000CD828684000B8FBF0F087B2042F00DA6D
:1007000004273E4309F10100208427E0E8884BF6E6
:10071000FF71884206D1286800EB4000B8FBF0F07A
:1007200087B209E0286800EBC00101EB0010B8FBBC
:10073000F0F087B247F48047C7F30B0008B947F0E1
:10074000010747F4004006434FF4967009FB00F0A0
:100750004FF47A7190FBF1F0401C2084A68320882E
:1007600040F00100208026884FF6F5300640A8882A
:100770006989084306432680A8892989084320817E
:1007800005B0BDE8F083000000127A0040420F007F
:10079000A086010070B506460D46144601211B488F
:1007A000FFF76AFF00BF1A491848FFF727FF002824
:1007B000F9D001223146154800F030F800BF144945
:1007C000491C1248FFF71AFF0028F8D016E0012C48
:1007D00007D100210D48FFF705FF01210B48FFF766
:1007E00057FF0B493F310948FFF708FF30B1074871
:1007F00000F010F828706D1C601EC4B2002CE6D109
:1008000001210248FFF7EEFE70BD000000540040D9
:10081000010003000146088AC0B2704712B141F0DE
:10082000010102E04FF6FE73194001827047018218
:100830007047000070B504460D4601211348FFF7CC
:100840001BFF00BF12491148FFF7D8FE0028F9D05E
:10085000002221460D48FFF7E1FF00BF0D490B487C
:10086000FFF7CCFE0028F9D029460848FFF7DFFF44
:1008700000BF0849891C0548FFF7C0FE0028F8D0D2
:1008800001210248FFF704FF70BD00000054004042
:10089000010003008200070029B1064AD269024321
:1008A000044BDA6104E0034AD2698243014BDA6106
:1008B000704700000010024029B1064A1269024345
:1008C000044B1A6104E0034A12698243014B1A6126
:1008D000704700000010024029B1064A92690243A5
:1008E000044B9A6104E0034A92698243014B9A6186
:1008F000704700000010024030B5002100220024A3
:1009000000232D4D6D6805F00C0121B1042905D09F
:10091000082923D105E0294D056022E0274D056017
:100920001FE0254D6D6805F47012234D6D6805F4C8
:100930008034022505EB92421CB9214D55430560D8
:100940000BE01D4D6D6805F400351DB11C4D554380
:10095000056002E0194D5543056002E0174D056042
:1009600000BF00BF144D6D6805F0F0010909154D79
:100970006B5C0568DD4045600F4D6D6805F4E06116
:10098000090A104D6B5C4568DD4085600A4D6D6855
:1009900005F46051C90A0B4D6B5C4568DD40C560CC
:1009A000054D6D6805F44041890B074D6B5CC568CA
:1009B000B5FBF3F5056130BD0010024000127A006E
:1009C00000093D00040000201400002010B500F0D4
:1009D00001F810BD0CB5002001900090334800686C
:1009E00040F480303149086000BF3048006800F4AE
:1009F000003000900198401C0190009818B90198AF
:100A0000B0F5A06FF1D12948006800F4003010B1B2
:100A10000120009001E0002000900098012843D1BF
:100A20002348006840F0100021490860084600682B
:100A300020F0070008600846006840F002000860E7
:100A40001A484068194948600846406848600846A6
:100A5000406840F4806048600846406820F47C109C
:100A600048600846406840F4E8104860084600685E
:100A700040F08070086000BF0C48006800F0007013
:100A80000028F9D00948406820F003000749486071
:100A90000846406840F00200486000BF03484068D4
:100AA00000F00C000828F9D10CBD00000010024035
:100AB0000020024010B51348006840F001001149C1
:100AC000086008464068104908400E4948600846DA
:100AD00000680E4908400B4908600846006820F489
:100AE000802008600846406820F4FE0048604FF40B
:100AF0001F008860FFF76AFF4FF00060044908603C
:100B000010BD0000001002400000FFF8FFFFF6FEDD
:100B100008ED00E021B1828942F40052828104E0B4
:100B200082894DF6FF731A40828170470246002089
:100B3000B1F5007F00D100BF13880B400BB101203D
:100B400000E00020704700002DE9F04786B0054620
:100B50000E460024A24600BFA1460027B08900B17E
:100B600000BF2F462C8A4CF6FF700440F0880443E7
:100B70002C82AC894EF6F3100440B08831890843CA
:100B8000718908430443AC81AC8A4FF6FF400440AE
:100B9000B0890443AC8201A8FFF7AEFE1F4887422C
:100BA00002D1DDF810A001E0DDF80CA0A88900F466
:100BB000004040B10AEBCA0000EB0A10316849005E
:100BC000B0FBF1F807E00AEBCA0000EB0A1031684D
:100BD0008900B0FBF1F86420B8FBF0F004012009B3
:100BE000642101FB1089A88900F4004040B1322043
:100BF00000EBC900B0FBF1F000F00700044308E08F
:100C0000322000EB09106421B0FBF1F000F00F007E
:100C100004432C8106B0BDE8F08700000038014095
:100C2000C1F308028280704700B585B0012104201D
:100C3000FFF752FE01218803FFF74EFE4FF40070CC
:100C4000ADF8000018208DF8030003208DF8020095
:100C500069461348FFF724FC4FF48060ADF80000AC
:100C600004208DF8030069460D48FFF719FC4FF486
:100C7000165001900020ADF80800ADF80A00ADF85C
:100C80000C00ADF810000C20ADF80E0001A90548CD
:100C9000FFF75AFF01210348FFF73CFF05B000BDF5
:100CA0000008014000380140002107E0002200E078
:100CB000521C42F6FF239A42FADB491C8142F5DBC3
:100CC000704770B504460D46E0B200F04BF8204680
:100CD00070BD00001FB501214805FFF7DDFD0F487D
:100CE000FFF7AEFC0E4800900020ADF804004BF674
:100CF000FF70ADF806000020ADF808004FF48060EA
:100D0000ADF80A000001ADF80C0069460348FFF792
:100D1000CBFC01210148FFF786FC1FBD00540040B9
:100D2000A0860100FFF748FCFFF7D4FFFFF77CFF28
:100D3000FFF78DFBB420FFF7B7FF0AE0FFF796FB44
:100D40000446214603A0FFF743FA4FF4FA70FFF779
:100D5000ABFFF3E74C7578203D202575206C780DAE
:100D60000A00000010B5044621460548FFF758FF69
:100D700000BF80210248FFF7D9FE0028F9D010BD3E
:100D8000003801404FF47F0C1CEAD0121EBF1CEA51
:100D9000D11392EA0C0F93EA0C0F00F0858090EAD1
:100DA000010F48BF42F4807240F4000C41F400008F
:100DB0002CF07F4120F07F4000B58142A2EB03027E
:100DC0000FF2081CACEB504EC0F100009EF800E0A2
:100DD0004FEA4E0E00FB0EFC38BF49004FEA2C1CB8
:100DE00002F5FA020CFB0EF34FEACE1E4FEA112C6D
:100DF0004FEAC1210EEB635E42EB22420EFB0CFC7C
:100E00004FEA1C5300FB03114FEA112C4FEA01314A
:100E10000EFB0CFC4FEADC4C00FB0C11C14228BF5E
:100E200009184CEB03335DF804EB10EB410143EB85
:100E3000C250B2F57C0F38BF704729D512F0F00FC1
:100E40001CBF00F1C04000F0004070470081828369
:100E50008485868788898B8C8D8E8F9192939596C9
:100E600097999A9C9D9FA0A2A3A5A7A8AAACAEB053
:100E7000B2B3B5B7B9BCBEC0C2C5C7C9CCCED1D458
:100E8000D7D9DCDFE2E6E9ECF0F3F7FAFE00000088
:100E90004FEA400C0CF1807CBCF17E4F28BF7047BC
:100EA000B0F1C04000F0A9B890EA010F0CEAD113EC
:100EB00048BF42F48072624538BF634507D213F4DD
:100EC0007F0F16D080EA010000F00040704710B597
:100ED00000F04DF8097EFC3E00F005B880EA010004
:100EE00000F00040704780EA010000F0004000F090
:100EF00084B812F47F0F04BF0248704780EA0100F3
:100F000000F07BB80000C07FC10DD1F19E0206DB6E
:100F10004FEA002343F0004323FA02F070470042F7
:100F200007D54FEA4001B1F1FE4F02D24FF0000069
:100F3000704710B500F01BF84992248000207047DC
:100F40006FEA200070470000B0FA80F310FA03F255
:100F5000C3F19D030AD0D90501EB1220530638BF17
:100F6000704700F1010008BF20F0010070470EF14A
:100F7000020E2EF0030E5EF8044B244204D44FEA16
:100F80004102B2F17F4F11D84FEA4003B3F17F4FD6
:100F90000CD80ED14FEAD07CB2F17F4F0CEB4C0C49
:100FA0000CF1020C08BF4CEBD17C04E04FF0080CB4
:100FB00001E04FEAD17C0CEB4C0324FA03F404F07B
:100FC0000704B4F1040C06D20EEB840CBDE810400B
:100FD0004CF0010C6047DFE80CF0070802024FF00C
:100FE0000040A0F5800010BD0846420018BFD2F1B5
:100FF000807288BF00F0004010BDFF2141EAD05050
:10100000C0057047241000080000002018000000F0
:10101000280100083C1000081800002060060000AD
:101020004401000800000000000000000102030469
:0C10300001020304060708090204060878
:04000005080001915D
:00000001FF
